:020000040800F2
:1000000000280020FD14000821140008271400080F
:100010002D140008331400083914000800000000F3
:100020000000000000000000000000003F14000875
:100030004B14000800000000571400086314000867
:100040004515000845150008451500084515000828
:100050004515000845150008451500084515000818
:100060004515000845150008451500084515000808
:1000700045150008451500084515000845150008F8
:1000800045150008451500084515000845150008E8
:1000900045150008451500084515000845150008D8
:1000A00045150008451500084515000845150008C8
:1000B00071140008451500080000000045150008EF
:1000C000451500080000000000000000451500086C
:1000D000000000004515000845150008000000005C
:1000E00045150008451500084515000800000000EA
:1000F0000000000000000000000000000000000000
:0C01000000000000000000005FF808F1A3
:10010C0010B5054C237833B9044B13B10448AFF345
:10011C0000800123237010BDDC00002000000000D3
:10012C00102D000808B5034B1BB103490348AFF36E
:10013C00008008BD00000000E0000020102D000829
:10014C0080B483B000AF7860054A7B6852F82320F6
:10015C00044BDA6000BF0C37BD4680BC704700BF53
:10016C0000000020000C014080B582B000AF786028
:10017C007B68032B2AD801A252F823F099010008BE
:10018C00A9010008B9010008C9010008154A7B68DB
:10019C0052F823301846FFF7D3FF18E0114A7B685A
:1001AC0052F823301846FFF7CBFF10E00D4A7B685E
:1001BC0052F823301846FFF7C3FF08E0094A7B6862
:1001CC0052F823301846FFF7BBFF00E000BF064B88
:1001DC001B68032B02DD044B00221A6000BF08379A
:1001EC00BD4680BD28000020F800002080B582B0FC
:1001FC0000AF002001F04CF80346244A82FB0312A6
:10020C005211DB17D31A7B60012001F041F8034631
:10021C001E4A82FB03125211DB17D31A3B607B6818
:10022C0001331B4A82FB03129210DB17D31A194AB3
:10023C0013607B68591C164B83FB01239A10CB1758
:10024C00D21A13469B0013445B00CA1A114B5A6016
:10025C003B6801330E4A82FB03129210DB17D31A50
:10026C000C4A93603B68591C094B83FB01239A1081
:10027C00CB17D21A13469B0013445B00CA1A054BCA
:10028C00DA6000BF0837BD4680BD00BF1F85EB514B
:10029C00676666662800002080B400AF1B4B1B68A5
:1002AC001B4A82FB03129210DB17D31A194A936074
:1002BC00164B1968164B83FB01239A10CB17D21AD5
:1002CC0013469B0013445B00CA1A124BDA60114BA5
:1002DC0000221A60104B1B680C2B0ED00C2B10DC60
:1002EC000A2B02D00B2B04D00BE00A4B02225A60D3
:1002FC0008E0084B03225A6004E0064B04225A60C3
:10030C0000E000BF00BFBD4680BC7047FC00002071
:10031C0067666666280000204800002080B500AFA4
:10032C009A4B1B680F2B63D00F2B00F38F800D2B78
:10033C0002D00E2B2ED089E0FFF7AEFF002000F08C
:10034C0093FA0346002B02D0904B0B221A6002202A
:10035C0000F08AFA0346002B09D08C4B0A221A6053
:10036C008B4B1B68642202FB03F38A4A1360012047
:10037C0000F07AFA0346002B6AD0854B1B68632B7E
:10038C0002DD834B00221A60814B1B680133804ACB
:10039C0013605DE0FFF780FF002000F065FA034674
:1003AC00002B02D0794B0C221A60022000F05CFA70
:1003BC000346002B09D0754B0B221A60744B1B683B
:1003CC00642202FB03F3744A1360012000F04CFA20
:1003DC000346002B3ED06E4B1B68632B02DD6C4B2F
:1003EC0000221A606A4B1B680133694A136031E0C2
:1003FC00FFF752FF002000F037FA0346002B02D023
:10040C00624B09221A60022000F02EFA0346002BE0
:10041C0009D05E4B0C221A605D4B1B68642202FBF8
:10042C0003F35D4A1360012000F01EFA0346002B13
:10043C0012D0574B1B68632B02DD554B00221A6000
:10044C00534B1B680133524A136005E000BF04E0B4
:10045C0000BF02E000BF00E000BF4E4B1A684F4BDC
:10046C001B689A4218DD4B4B1A684C4B1B6892FB6D
:10047C00F3F3494A126802FB03F3474A1360454BF6
:10048C001A68464B1B6892FBF3F3454A126802FB51
:10049C0003F3434A1360A7E03F4B1A68414B1B68B8
:1004AC009A4218DD3C4B1A683E4B1B6892FBF3F3E7
:1004BC00384A126802FB03F3364A1360364B1A684B
:1004CC00384B1B6892FBF3F3354A126802FB03F3BB
:1004DC00334A136088E0324B1A68334B1B689A42DC
:1004EC0018DD2F4B1A68304B1B6892FBF3F3294A2B
:1004FC00126802FB03F3274A1360294B1A682A4B34
:10050C001B6892FBF3F3244A126802FB03F3224AA2
:10051C00136069E01F4B1A68204B1B689A4218DA6B
:10052C001C4B1B68214A82FB03125210DB17D31A97
:10053C005B00194A1360174B1B681C4A82FB0312A1
:10054C005210DB17D21A13465B001344144A136083
:10055C004AE0114B1A68134B1B689A4228DA0E4B6F
:10056C001B68DA0F13445B101A4613469B001344A6
:10057C00084A1360084B1B68DA0F13445B101A46C9
:10058C0013465B001344064A13602DE0480000201C
:10059C00FC0000204C0000205000002058000020DF
:1005AC00540000205C000020600000206766666636
:1005BC00144B1A68144B1B689A4215DA114B1B68C2
:1005CC00124A82FB0312DB17D21A13469B00134408
:1005DC000F4A13600B4B1B680C4A82FB0312DB1790
:1005EC00D31A5B000B4A1360094B1B680A4A136051
:1005FC00084B1B68094A1360024B1B68024A1360C4
:10060C0000BF80BD54000020600000205655555599
:10061C004C00002050000020580000205C000020FE
:10062C0080B500AF294B1B68103B032B44D801A2AB
:10063C0052F823F0510600086506000885060008EC
:10064C00A5060008214B11221A60214B1B68194684
:10065C00002000F041FE36E0002000F029FE0346A9
:10066C00002B2BD0194B12221A601A4B1B681946FF
:10067C00002000F031FE21E0002000F019FE0346BE
:10068C00002B1DD0114B13221A60134B1B681946FB
:10069C00002000F021FE13E0002000F009FE0346CC
:1006AC00002B0FD0094B11221A60094B1B681946FD
:1006BC00002000F011FE05E000BF04E000BF02E0E6
:1006CC0000BF00E000BF00BF80BD00BF38000020AD
:1006DC004C000020540000205000002080B500AFDA
:1006EC00294B1B68103B032B44D801A252F823F072
:1006FC000D070008610700082107000841070008E2
:10070C00214B12221A60214B1B681946012000F064
:10071C00E3FD36E0012000F0CBFD0346002B2BD08F
:10072C00194B13221A601A4B1B681946012000F052
:10073C00D3FD21E0012000F0BBFD0346002B1DD0B2
:10074C00114B11221A60134B1B681946012000F043
:10075C00C3FD13E0012000F0ABFD0346002B0FD0CE
:10076C00094B12221A60094B1B681946012000F034
:10077C00B3FD05E000BF04E000BF02E000BF00E0F5
:10078C0000BF00BF80BD00BF3C0000205400002013
:10079C00500000204C00002080B500AFFFF740FF58
:1007AC00FFF79CFF2D4B1B68132B11D0132B25DC53
:1007BC00112B02D0122B16D020E001220421284844
:1007CC0001F0BDF900221821254801F0B8F916E016
:1007DC0001220821224801F0B2F9002214212048FC
:1007EC0001F0ADF90BE0012210211D4801F0A7F931
:1007FC0000220C211A4801F0A2F900E000BF194BAD
:10080C001B68132B11D0132B25DC112B02D0122BB0
:10081C0016D020E001222021114801F090F900228D
:10082C00C0210F4801F08BF916E0012240210C4841
:10083C0001F085F90022A021094801F080F90BE0B4
:10084C0001228021064801F07AF900226021044837
:10085C0001F075F900E000BF00BF80BD380000203A
:10086C00000801403C00002080B483B000AF7860E9
:10087C00094A7B6852F82330012B06D1064A7B6863
:10088C00002142F82310012300E0002318460C3706
:10089C00BD4680BC704700BF2001002080B582B0EF
:1008AC0000AF00237B60A4E0564A7B689B00134496
:1008BC005978544A7B6802F82310524A7B689B0093
:1008CC00134499784F4A7B689B0013440A465A702C
:1008DC007B68022B25D07B68022B30DC7B68002BDD
:1008EC0003D07B68012B0ED029E04FF48051464891
:1008FC0001F00EF903461946424A7B689B001344EB
:10090C000A469A701CE04FF400513F4801F000F980
:10091C00034619463B4A7B689B0013440A469A706F
:10092C000EE04FF48041384801F0F2F803461946C6
:10093C00344A7B689B0013440A469A7000E000BF5F
:10094C00304A7B689B0013445A782E497B6811F817
:10095C0023309A424AD12B4A7B689B0013449A78E5
:10096C0028497B689B000B445B789A423ED1254A10
:10097C007B689B001344DA7822497B689B000B440C
:10098C009B789A421DD01F4A7B689B001344997830
:10099C001C4A7B689B0013440A46DA70194A7B6830
:1009AC009B0013449B78002B20D1184A7B680121B3
:1009BC0042F82310164B1A6816497B6841F823201D
:1009CC0014E0144A7B6852F823305A1E11497B6894
:1009DC0041F823200F4A7B6852F82330002B05D1B5
:1009EC00084A7B689B0013440122DA707B68013350
:1009FC007B607B68022B7FF757AF00BF00BF0837C7
:100A0C00BD4680BD2C0100200008014020010020C3
:100A1C00440000201401002080B500AF864B1B68F9
:100A2C00083B042B00F2FF8001A252F823F000BF18
:100A3C00510A0008590A0008750A0008030B00083F
:100A4C008F0B00087C4B09221A60F3E00020FFF7A3
:100A5C000BFF0346002B02D0774B0A221A60FFF7DC
:100A6C009BFEFFF7C3FBE5E00020FFF7FDFE03460E
:100A7C00002B02D0704B0B221A60032000F018FCE4
:100A8C000346002B0FD06D4B1B78002B0CBF0123A2
:100A9C000023DBB21A46694B1A70694B1B68194666
:100AAC00032000F019FC654B1B781A46242165487D
:100ABC0001F045F80022D821624801F040F8624B61
:100ACC001B68624A82FB03125211DB17D31A604A6D
:100ADC001360FFF7E1FB0120FFF7C6FE0346002B76
:100AEC0000F0A380544B0D221A60594B1B68013344
:100AFC00574A136099E00020FFF7B6FE0346002B1F
:100B0C0002D04D4B0C221A60032000F0D1FB03469F
:100B1C00002B0FD0494B1B78002B0CBF012300235B
:100B2C00DBB21A46454B1A70454B1B68194603201D
:100B3C0000F0D2FB414B1B781A464821414800F08B
:100B4C00FEFF0022B4213F4800F0F9FF414B1B6827
:100B5C003E4A82FB03125211DB17D31A3C4A136034
:100B6C00FFF79AFB0120FFF77FFE0346002B5ED0B8
:100B7C00314B0E221A60364B1B680133344A13601A
:100B8C0055E00020FFF770FE0346002B0ED02A4BD9
:100B9C0009221A602C4B1B681946002000F09CFBA4
:100BAC002D4B1B681946012000F096FB032000F02A
:100BBC007FFB0346002B0FD0204B1B78002B0CBF68
:100BCC0001230023DBB21A461C4B1A701C4B1B680A
:100BDC001946032000F080FB184B1B781A46902115
:100BEC00184800F0ACFF00226C21164800F0A7FF5B
:100BFC00194B1B68154A82FB03125211DB17D31ACF
:100C0C00134A1360FFF748FB0120FFF72DFE034644
:100C1C00002B0ED0084B0F221A600D4B1B680133B2
:100C2C000B4A136005E000BF04E000BF02E000BF08
:100C3C0000E000BF00BF80BD480000204000002045
:100C4C0068000020000801404C0000201F85EB517B
:100C5C00FC000020500000205400002080B500AFA4
:100C6C00022000F025FB0346002B58D001224FF444
:100C7C0070612C4800F063FF2B4B1B68032B3FD893
:100C8C0001A252F823F000BFA50C0008BF0C00080D
:100C9C00D90C0008F30C000800224FF48071214895
:100CAC0000F04DFF01224FF460611E4800F047FF39
:100CBC0027E000224FF400711A4800F040FF012297
:100CCC004FF45061174800F03AFF1AE000224FF43D
:100CDC008061144800F033FF01224FF43061114859
:100CEC0000F02DFF0DE000224FF400610D4800F0E4
:100CFC0026FF01224FF4E0610A4800F020FF00E0DB
:100D0C0000BF094B1B685A1C07490A601846FFF7BD
:100D1C002BFA064B1B681946022000F0DDFA00BFC7
:100D2C0080BD00BF00080140F800002064000020D6
:100D3C0080B500AF0F4B1B681946002000F0CCFAB1
:100D4C000D4B1B681946012000F0C6FA0B4B1B68B3
:100D5C001946022000F0C0FA094B1B681946032003
:100D6C0000F0BAFA01224FF47061064800F0E7FE79
:100D7C0000BF80BD4C000020540000206400002007
:100D8C00680000200008014080B500AF00F0D6FBE1
:100D9C0000F010F800F096F800F048F8044801F064
:100DAC0013FB00F0BDF900F053FA00F0F3F9FCE787
:100DBC003801002080B590B000AF07F1180328224D
:100DCC000021184601F0D2FE3B1D00221A605A6029
:100DDC009A60DA601A610223BB610123BB621023A3
:100DEC00FB6200237B6307F11803184600F0C0FE7A
:100DFC000346002B01D000F0D5F80F237B600023B5
:100E0C00BB600023FB6000233B6100237B613B1D27
:100E1C000021184601F02CF90346002B01D000F0FC
:100E2C00C1F800BF4037BD4680BD000080B586B01C
:100E3C0000AF07F1080300221A605A609A60DA606A
:100E4C003B4600221A605A601D4B4FF080421A60DC
:100E5C001B4B41F63F725A60194B00229A60184B9B
:100E6C000922DA60164B00221A61154B00229A6196
:100E7C00134801F059FA0346002B01D000F092F808
:100E8C004FF48053BB6007F1080319460C4801F07E
:100E9C00EFFB0346002B01D000F084F800233B60ED
:100EAC0000237B603B461946054801F0BBFD034619
:100EBC00002B01D000F076F800BF1837BD4680BD7E
:100ECC003801002080B586B000AF07F1080300227E
:100EDC001A605A609A60DA60284B9B69274A43F083
:100EEC0004039361254B9B6903F004037B607B68CF
:100EFC00224B9B69214A43F0080393611F4B9B696A
:100F0C0003F008033B603B68002240F6FC711C4870
:100F1C0000F015FE00227F211A4800F010FE40F66A
:100F2C00FC73BB600123FB6000233B6102237B61EC
:100F3C0007F108031946124800F070FC7F23BB60D0
:100F4C000123FB6000233B6102237B6107F1080353
:100F5C0019460C4800F062FC4FF4E043BB600023E0
:100F6C00FB6000233B6107F108031946044800F0BD
:100F7C0055FC00BF1837BD4680BD00BF00100240B5
:100F8C0000080140000C014080B582B000AF7860D1
:100F9C0000F0BAF900F040F9FFF780FC00BF083709
:100FAC00BD4680BD80B400AF72B600BFFEE784B012
:100FBC0080B582B000AF07F1100C8CE80F00182040
:100FCC0001F0C4FD03467B607B68002B01D100233C
:100FDC0012E03A697B681A607A697B685A60BA6970
:100FEC007B689A60FA697B68DA603A6A7B681A6196
:100FFC007B6800225A617B6818460837BD46BDE8FD
:10100C00804004B0704784B080B586B002AF786081
:10101C0007F11C0080E80E00FB6A009307F11C032B
:10102C000FCBFFF7C4FFB8607B681B68002B03D1A4
:10103C007B68BA681A6044E07B681B68FB60BB681D
:10104C005A687B681B685B689A420DD2FB685A68C9
:10105C00BB685B68D21AFB685A60BB68FA685A6155
:10106C007B68BA681A602CE0BB685A68FB685B68DE
:10107C00D21ABB685A600AE0BB685A68FB685B69A5
:10108C005B68D21ABB685A60FB685B69FB60FB68E3
:10109C005B69002B06D0FB685B695A68BB685B68B0
:1010AC009A42E9D9FB685B69002B03D1FB68BA68EB
:1010BC005A6106E0FB685A69BB685A61FB68BA68FA
:1010CC005A611037BD46BDE8804004B0704780B50A
:1010DC0084B000AF78607B681B68002B0AD07B68FB
:1010EC001B68FB60FB685A697B681A60F86801F042
:1010FC0035FD00E000BF1037BD4680BD80B582B025
:10110C0000AF786002E07868FFF7E1FF7B681B684E
:10111C00002BF8D100BF00BF0837BD4680BD0000D2
:10112C0080B500AF0348FFF7E9FF034B00221A60BC
:10113C0000BF80BD040100200001002080B58CB0F0
:10114C0002AFF860B9607A60FB687B61BB68BB6119
:10115C007B68FB6100233B620C4B1B687B626A461D
:10116C0007F1200393E8030082E8030007F114035E
:10117C000ECB0748FFF747FF044B1B680133034AAC
:10118C00136000BF2837BD4680BD00BF00010020A2
:10119C000401002080B588B002AF1D4B1B68002BEA
:1011AC0032D01B4B1B68DB68012B2ED1184B1B68F4
:1011BC001B689847164B1B689B68002B03D114487F
:1011CC00FFF785FF21E0124B1B681B687B60104BFF
:1011DC001B689B68BB600E4B1B689B68FB60002305
:1011EC003B610C4B1B687B610948FFF770FF6A463B
:1011FC0007F1100393E8030082E803003B1D0ECBBC
:10120C000348FFF700FF00E000BF1837BD4680BD64
:10121C00040100200001002080B400AF0B4B1B68C0
:10122C00002B0FD0094B1B685B68002B05D0074BBC
:10123C001B685A68013A5A6005E0044B1B6801228E
:10124C00DA6000E000BFBD4680BC7047040100209E
:10125C0080B500AF002200210948FFF76FFF012283
:10126C0000210848FFF76AFF012200210648FFF71A
:10127C0065FF012200210548FFF760FF00BF80BD1C
:10128C003D0D0008250A000829030008690C000818
:10129C0080B483B000AF7860044A7B6852F8233086
:1012AC0018460C37BD4680BC704700BF800100203B
:1012BC0080B483B000AF7860064A7B6852F8233064
:1012CC00012B0CBF01230023DBB218460C37BD46A3
:1012DC0080BC70479001002080B483B000AF786070
:1012EC00396007497B683A6841F82320054A7B68D6
:1012FC00002142F8231000BF0C37BD4680BC70475C
:10130C00800100209001002080B483B000AF002346
:10131C007B601CE0124A7B6852F82330002B13DDF3
:10132C000F4A7B6852F823305A1E0D497B6841F8EE
:10133C0023200B4A7B6852F82330002B04D1094A36
:10134C007B68012142F823107B6801337B607B684A
:10135C00032BDFDD00BF00BF0C37BD4680BC7047E0
:10136C00800100209001002080B485B000AF154BA7
:10137C009B69144A43F001039361124B9B6903F080
:10138C000103BB60BB680F4BDB690E4A43F0805313
:10139C00D3610C4BDB6903F080537B607B680A4B99
:1013AC005B68FB60FB6823F0E063FB60FB6843F069
:1013BC008063FB60044AFB68536000BF1437BD4672
:1013CC0080BC7047001002400000014080B584B022
:1013DC0000AF78607B681B68B3F1804F13D10C4B66
:1013EC00DB690B4A43F00103D361094BDB6903F062
:1013FC000103FB60FB68002200211C2000F0D7F9E0
:10140C001C2000F0F0F900BF1037BD4680BD00BFB6
:10141C000010024080B400AFFEE780B400AFFEE7DE
:10142C0080B400AFFEE780B400AFFEE780B400AF3D
:10143C00FEE780B400AF00BFBD4680BC704780B4EF
:10144C0000AF00BFBD4680BC704780B400AF00BF8A
:10145C00BD4680BC704780B500AF00F0B5F800BF4A
:10146C0080BD000080B500AF024800F0F9FF00BF5E
:10147C0080BD00BF3801002080B586B000AF786019
:10148C00144A154BD31A7B617B693B61134B1B6868
:10149C00002B02D1114B124A1A60104B1A687B6850
:1014AC0013443A699A4207D201F026FB03460C22F8
:1014BC001A604FF0FF3309E0084B1B68FB60074BC9
:1014CC001A687B681344054A1360FB681846183782
:1014DC00BD4680BD0028002000040000080100204B
:1014EC00B801002080B400AF00BFBD4680BC70477F
:1014FC00FFF7F8FF0B480C490C4A002302E0D458C4
:10150C00C4500433C4188C42F9D3094A094C002343
:10151C0001E013600432A242FBD301F0F3FAFFF7AF
:10152C0033FC704700000020DC000020542D000824
:10153C00DC000020B4010020FEE7000080B500AF05
:10154C00084B1B68074A43F010031360032000F09C
:10155C0023F90F2000F008F8FFF706FF00231846C8
:10156C0080BD00BF0020024080B582B000AF786023
:10157C00124B1A68124B1B7819464FF47A73B3FB53
:10158C00F1F3B2FBF3F3184600F03BF90346002BE2
:10159C0001D001230EE07B680F2B0AD8002279685A
:1015AC004FF0FF3000F003F9064A7B68136000230C
:1015BC0000E0012318460837BD4680BD6C000020B2
:1015CC00740000207000002080B400AF054B1B7825
:1015DC001A46054B1B681344034A136000BFBD46F3
:1015EC0080BC704774000020A001002080B400AFC4
:1015FC00024B1B681846BD4680BC7047A0010020FA
:10160C0080B485B000AF78607B6803F00703FB60A3
:10161C000C4BDB68BB60BA684FF6FF031340BB6032
:10162C00FB681A02BB68134343F0BF6343F40033F7
:10163C00BB60044ABB68D36000BF1437BD4680BC96
:10164C00704700BF00ED00E080B400AF044BDB68D6
:10165C001B0A03F007031846BD4680BC704700BF49
:10166C0000ED00E080B483B000AF0346FB7197F946
:10167C000730002B0BDBFB7903F01F02064997F9AF
:10168C0007305B09012000FA02F241F8232000BF69
:10169C000C37BD4680BC704700E100E080B483B0DD
:1016AC0000AF03463960FB7197F90730002B0ADB5A
:1016BC003B68DAB20C4997F907301201D2B20B44ED
:1016CC0083F800230AE03B68DAB20849FB7903F09F
:1016DC000F03043B1201D2B20B441A7600BF0C3735
:1016EC00BD4680BC704700BF00E100E000ED00E0AB
:1016FC0080B489B000AFF860B9607A60FB6803F021
:10170C000703FB61FB69C3F10703042B28BF042308
:10171C00BB61FB690433062B02D9FB69033B00E078
:10172C0000237B614FF0FF32BB6902FA03F3DA430B
:10173C00BB681A407B699A404FF0FF317B6901FA14
:10174C0003F3D9437B680B40134318462437BD463B
:10175C0080BC704780B582B000AF78607B68013B7D
:10176C00B3F1807F01D301230FE00A4A7B68013B70
:10177C0053600F214FF0FF30FFF790FF054B002215
:10178C009A60044B07221A60002318460837BD469E
:10179C0080BD00BF10E000E080B582B000AF786083
:1017AC007868FFF72DFF00BF0837BD4680BD80B5B8
:1017BC0086B000AF0346B9607A60FB7300237B618F
:1017CC00FFF742FF78617A68B9687869FFF790FF94
:1017DC00024697F90F3011461846FFF75FFF00BF1E
:1017EC001837BD4680BD80B582B000AF0346FB7193
:1017FC0097F907301846FFF735FF00BF0837BD468D
:10180C0080BD80B582B000AF78607868FFF7A2FF2A
:10181C00034618460837BD4680BD000080B48BB027
:10182C0000AF7860396000237B6200233B6248E1A3
:10183C0001227B6A02FA03F3FB613B681B68FA69BD
:10184C001340BB61BA69FB699A4240F037813B682F
:10185C005B68A34A93425ED0A14A934275D8A14AD1
:10186C00934258D09F4A93426FD89F4A934252D08A
:10187C009D4A934269D89D4A93424CD09B4A9342CD
:10188C0063D89B4A934246D0994A93425DD8122B17
:10189C002AD8122B59D801A252F823F02319000888
:1018AC00FD1800080F1900085119000857190008F5
:1018BC00571900085719000857190008571900083C
:1018CC00571900085719000857190008571900082C
:1018DC00571900085719000857190008571900081C
:1018EC000519000819190008824A934213D02CE0FC
:1018FC003B68DB683B6229E03B68DB6804333B6296
:10190C0024E03B68DB6808333B621FE03B68DB6824
:10191C000C333B621AE03B689B68002B02D104231A
:10192C003B6213E03B689B68012B05D108233B62AB
:10193C007B68FA691A6109E008233B627B68FA69E3
:10194C005A6103E000233B6200E000BFBB69FF2B40
:10195C0001D87B6801E07B6804337B61BB69FF2B9A
:10196C0002D87B6A9B0002E07B6A083B9B003B61D0
:10197C007B691A680F213B6901FA03F3DB431A40B8
:10198C00396A3B6901FA03F31A437B691A603B68B5
:10199C005B6803F08053002B00F09080564B9B69E2
:1019AC00554A43F001039361534B9B6903F00103C8
:1019BC00BB60BB68514A7B6A9B08023352F82330E8
:1019CC00FB607B6A03F003039B000F2202FA03F314
:1019DC00DB43FA681340FB607B68494A93420DD0A5
:1019EC007B68484A934207D07B68474A934201D1AF
:1019FC00022304E0032302E0012300E000237A6ABF
:101A0C0002F0030292009340FA681343FB603B49D7
:101A1C007B6A9B080233FA6841F823203B685B68B9
:101A2C0003F48013002B06D0384B9A683749BB69F6
:101A3C0013438B6006E0354B9A68BB69DB43334933
:101A4C0013408B603B685B6803F40013002B06D0DB
:101A5C002E4BDA682D49BB691343CB6006E02B4B48
:101A6C00DA68BB69DB4329491340CB603B685B6890
:101A7C0003F40033002B06D0244B5A682349BB696E
:101A8C0013434B6006E0214B5A68BB69DB431F498B
:101A9C0013404B603B685B6803F48033002B06D02B
:101AAC001A4B1A681949BB6913430B6006E0174BB4
:101ABC001A68BB69DB43154913400B607B6A013321
:101ACC007B623B681A687B6A22FA03F3002B7FF473
:101ADC00AFAE00BF00BF2C37BD4680BC704700BF07
:101AEC000000321000003110000022100000211004
:101AFC000000121000001110001002400000014004
:101B0C0000080140000C014000100140000401409D
:101B1C0080B485B000AF78600B467B807B689A6898
:101B2C007B881340002B02D00123FB7301E00023C0
:101B3C00FB73FB7B18461437BD4680BC704780B4E2
:101B4C0083B000AF78600B467B8013467B707B784C
:101B5C00002B03D07A887B681A6103E07B881A0417
:101B6C007B681A6100BF0C37BD4680BC7047000013
:101B7C0080B586B000AF78607B68002B01D1012363
:101B8C006CE27B681B6803F00103002B00F087807C
:101B9C00924B5B6803F00C03042B0CD08F4B5B68EF
:101BAC0003F00C03082B12D18C4B5B6803F48033CD
:101BBC00B3F5803F0BD1894B1B6803F40033002B2A
:101BCC006CD07B685B68002B68D1012346E27B6894
:101BDC005B68B3F5803F06D1804B1B687F4A43F4AA
:101BEC00803313602EE07B685B68002B0CD17B4B41
:101BFC001B687A4A23F480331360784B1B68774A4E
:101C0C0023F4802313601DE07B685B68B3F5A02F81
:101C1C000CD1724B1B68714A43F4802313606F4BD9
:101C2C001B686E4A43F4803313600BE06B4B1B68EC
:101C3C006A4A23F480331360684B1B68674A23F4A9
:101C4C00802313607B685B68002B13D0FFF7CEFCFE
:101C5C00386108E0FFF7CAFC02463B69D31A642BD3
:101C6C0001D90323FAE15D4B1B6803F40033002B0D
:101C7C00F0D014E0FFF7BAFC386108E0FFF7B6FCCF
:101C8C0002463B69D31A642B01D90323E6E1534B7B
:101C9C001B6803F40033002BF0D100E000BF7B681D
:101CAC001B6803F00203002B63D04C4B5B6803F002
:101CBC000C03002B0BD0494B5B6803F00C03082B77
:101CCC001CD1464B5B6803F48033002B16D1434B7D
:101CDC001B6803F00203002B05D07B681B69012BEA
:101CEC0001D00123BAE13D4B1B6823F0F8027B685D
:101CFC005B69DB00394913430B603AE07B681B6975
:101D0C00002B20D0364B01221A60FFF76FFC386194
:101D1C0008E0FFF76BFC02463B69D31A022B01D992
:101D2C0003239BE12D4B1B6803F00203002BF0D027
:101D3C002A4B1B6823F0F8027B685B69DB002749A0
:101D4C0013430B6015E0264B00221A60FFF74EFC84
:101D5C00386108E0FFF74AFC02463B69D31A022BB4
:101D6C0001D903237AE11D4B1B6803F00203002BFE
:101D7C00F0D17B681B6803F00803002B3AD07B681A
:101D8C009B69002B19D0174B01221A60FFF72EFC10
:101D9C00386108E0FFF72AFC02463B69D31A022B94
:101DAC0001D903235AE10D4B5B6A03F00203002BAC
:101DBC00F0D0012000F09AFA1CE00A4B00221A60C5
:101DCC00FFF714FC38610FE0FFF710FC02463B698B
:101DDC00D31A022B08D9032340E100BF00100240A4
:101DEC0000004242800442429E4B5B6A03F00203B5
:101DFC00002BE9D17B681B6803F00403002B00F077
:101E0C00A6800023FB75974BDB6903F08053002BF6
:101E1C000DD1944BDB69934A43F08053D361914BC2
:101E2C00DB6903F08053BB60BB680123FB758E4BF1
:101E3C001B6803F48073002B18D18B4B1B688A4AE8
:101E4C0043F480731360FFF7D1FB386108E0FFF7B0
:101E5C00CDFB02463B69D31A642B01D90323FDE069
:101E6C00814B1B6803F48073002BF0D07B68DB681C
:101E7C00012B06D17B4B1B6A7A4A43F00103136298
:101E8C002DE07B68DB68002B0CD1764B1B6A754A06
:101E9C0023F001031362734B1B6A724A23F0040391
:101EAC0013621CE07B68DB68052B0CD16D4B1B6A45
:101EBC006C4A43F0040313626A4B1B6A694A43F091
:101ECC00010313620BE0674B1B6A664A23F00103A4
:101EDC001362644B1B6A634A23F0040313627B682E
:101EEC00DB68002B15D0FFF781FB38610AE0FFF7A8
:101EFC007DFB02463B69D31A41F28832934201D9E9
:101F0C000323ABE0574B1B6A03F00203002BEED00C
:101F1C0014E0FFF76BFB38610AE0FFF767FB024642
:101F2C003B69D31A41F28832934201D9032395E0DD
:101F3C004C4B1B6A03F00203002BEED1FB7D012BF3
:101F4C0005D1484BDB69474A23F08053D3617B684A
:101F5C00DB69002B00F08180424B5B6803F00C03C3
:101F6C00082B61D07B68DB69022B46D13F4B0022EA
:101F7C001A60FFF73BFB386108E0FFF737FB0246BE
:101F8C003B69D31A022B01D9032367E0354B1B683D
:101F9C0003F00073002BF0D17B681B6AB3F5803F14
:101FAC0008D1304B5B6823F400327B689B682D4969
:101FBC0013434B602B4B5B6823F474127B68196AD8
:101FCC007B685B6A0B43274913434B60274B012209
:101FDC001A60FFF70BFB386108E0FFF707FB0246BE
:101FEC003B69D31A022B01D9032337E01D4B1B6825
:101FFC0003F00073002BF0D02FE01C4B00221A6072
:10200C00FFF7F4FA386108E0FFF7F0FA02463B6993
:10201C00D31A022B01D9032320E0124B1B6803F0C7
:10202C000073002BF0D118E07B68DB69012B01D128
:10203C00012313E00B4B5B68FB60FB6803F48032FD
:10204C007B681B6A9A4206D1FB6803F470127B68AA
:10205C005B6A9A4201D0012300E00023184618372E
:10206C00BD4680BD0010024000700040600042423E
:10207C0080B584B000AF786039607B68002B01D1EB
:10208C000123D0E06A4B1B6803F007033A689A42BD
:10209C0010D9674B1B6823F0070265493B68134353
:1020AC000B60634B1B6803F007033A689A4201D03C
:1020BC000123B8E07B681B6803F00203002B20D0DF
:1020CC007B681B6803F00403002B05D0594B5B683D
:1020DC00584A43F4E06353607B681B6803F00803C1
:1020EC00002B05D0534B5B68524A43F4605353604A
:1020FC00504B5B6823F0F0027B689B684D4913439F
:10210C004B607B681B6803F00103002B40D07B689D
:10211C005B68012B07D1474B1B6803F40033002B82
:10212C0015D101237FE07B685B68022B07D1414B03
:10213C001B6803F00073002B09D1012373E03D4BA6
:10214C001B6803F00203002B01D101236BE0394B18
:10215C005B6823F003027B685B68364913434B6072
:10216C00FFF744FAF8600AE0FFF740FA0246FB6812
:10217C00D31A41F28832934201D9032353E02D4BF9
:10218C005B6803F00C027B685B689B009A42EBD1A6
:10219C00274B1B6803F007033A689A4210D2244B72
:1021AC001B6823F0070222493B6813430B60204B4A
:1021BC001B6803F007033A689A4201D0012332E00E
:1021CC007B681B6803F00403002B08D0194B5B6879
:1021DC0023F4E0627B68DB68164913434B607B6831
:1021EC001B6803F00803002B09D0124B5B6823F427
:1021FC0060527B681B69DB000E4913434B6000F097
:10220C0021F802460B4B5B681B0903F00F030A49CC
:10221C00CB5C22FA03F3094A1360094B1B6818467E
:10222C00FFF7A2F9002318461037BD4680BD00BF4A
:10223C000020024000100240282D00086C000020F5
:10224C007000002080B487B000AF0023FB60002337
:10225C00BB6000237B6100237B6000233B611E4B32
:10226C005B68FB60FB6803F00C03042B02D0082BAB
:10227C0003D027E0194B3B6127E0FB689B0C03F074
:10228C000F03174AD35C7B60FB6803F48033002B8D
:10229C0010D0114B5B685B0C03F00103114AD35C4B
:1022AC00BB607B680D4A02FB03F2BB68B2FBF3F325
:1022BC007B6104E07B680C4A02FB03F37B617B6966
:1022CC003B6102E0054B3B6100BF3B6918461C3784
:1022DC00BD4680BC704700BF0010024000127A005F
:1022EC00382D0008482D000800093D0080B485B049
:1022FC0000AF78600A4B1B680A4AA2FB03235B0AF7
:10230C007A6802FB03F3FB6000BFFB685A1EFA609D
:10231C00002BF9D100BF00BF1437BD4680BC7047FD
:10232C006C000020D34D621080B582B000AF786095
:10233C007B68002B01D1012341E07B6893F83D3091
:10234C00DBB2002B06D17B68002283F83C20786836
:10235C00FFF73CF87B68022283F83D207B681A6803
:10236C007B6804331946104600F06EFA7B68012234
:10237C0083F846207B68012283F83E207B6801228B
:10238C0083F83F207B68012283F840207B68012280
:10239C0083F841207B68012283F842207B6801226C
:1023AC0083F843207B68012283F844207B68012258
:1023BC0083F845207B68012283F83D2000231846D2
:1023CC000837BD4680BD000080B485B000AF786092
:1023DC007B6893F83D30DBB2012B01D0012335E053
:1023EC007B68022283F83D207B681B68DA687B6877
:1023FC001B6842F00102DA607B681B68164A934244
:10240C0009D07B681B68B3F1804F04D07B681B68D4
:10241C00124A934211D17B681B689B6803F0070337
:10242C00FB60FB68062B10D07B681B681A687B6806
:10243C001B6842F001021A6007E07B681B681A688F
:10244C007B681B6842F001021A600023184614379F
:10245C00BD4680BC704700BF002C0140000400400A
:10246C0080B582B000AF78607B681B681B6903F095
:10247C000203022B22D17B681B68DB6803F002038A
:10248C00022B1BD17B681B686FF002021A617B6800
:10249C0001221A777B681B689B6903F00303002BEE
:1024AC0003D0786800F0B4F905E0786800F0A7F97B
:1024BC00786800F0B6F97B6800221A777B681B6895
:1024CC001B6903F00403042B22D17B681B68DB68B7
:1024DC0003F00403042B1BD17B681B686FF0040210
:1024EC001A617B6802221A777B681B689B6903F46C
:1024FC004073002B03D0786800F08AF905E0786807
:10250C0000F07DF9786800F08CF97B6800221A776E
:10251C007B681B681B6903F00803082B22D17B68BE
:10252C001B68DB6803F00803082B1BD17B681B6856
:10253C006FF008021A617B6804221A777B681B68AB
:10254C00DB6903F00303002B03D0786800F060F91B
:10255C0005E0786800F053F9786800F062F97B6860
:10256C0000221A777B681B681B6903F01003102B81
:10257C0022D17B681B68DB6803F01003102B1BD186
:10258C007B681B686FF010021A617B6808221A774F
:10259C007B681B68DB6903F44073002B03D07868FD
:1025AC0000F036F905E0786800F029F9786800F059
:1025BC0038F97B6800221A777B681B681B6903F06B
:1025CC000103012B0ED17B681B68DB6803F0010350
:1025DC00012B07D17B681B686FF001021A617868C8
:1025EC00FEF7D2FC7B681B681B6903F08003802B11
:1025FC000ED17B681B68DB6803F08003802B07D14E
:10260C007B681B686FF080021A61786800F06BFAC7
:10261C007B681B681B6903F04003402B0ED17B6861
:10262C001B68DB6803F04003402B07D17B681B68F9
:10263C006FF040021A61786800F0FCF87B681B6848
:10264C001B6903F02003202B0ED17B681B68DB6811
:10265C0003F02003202B07D17B681B686FF020024E
:10266C001A61786800F036FA00BF0837BD4680BDA5
:10267C0080B584B000AF786039600023FB737B6851
:10268C0093F83C30012B01D10223B4E07B6801228A
:10269C0083F83C207B68022283F83D207B681B6812
:1026AC009B68BB60BB6823F07703BB60BB6823F4FB
:1026BC007F43BB607B681B68BA689A603B681B6889
:1026CC00B3F5005F3ED0B3F5005F00F28780B3F541
:1026DC00805F00F08680B3F5805F7FD8702B1AD0B6
:1026EC00702B7BD8602B50D0602B77D8502B3CD0E4
:1026FC00502B73D8402B58D0402B6FD8302B64D034
:10270C00302B6BD8202B60D0202B67D8002B5CD0C3
:10271C00102B5AD062E07B6818683B6899683B685C
:10272C005A683B68DB6800F05EF97B681B689B6845
:10273C00BB60BB6843F07703BB607B681B68BA68FF
:10274C009A604FE07B6818683B6899683B685A68E8
:10275C003B68DB6800F047F97B681B689A687B680C
:10276C001B6842F480429A603CE07B6818683B68C6
:10277C0059683B68DB681A4600F0BEF87B681B683A
:10278C005021184600F015F92CE07B6818683B685E
:10279C0059683B68DB681A4600F0DCF87B681B68FC
:1027AC006021184600F005F91CE07B6818683B684E
:1027BC0059683B68DB681A4600F09EF87B681B681A
:1027CC004021184600F0F5F80CE07B681A683B686D
:1027DC001B681946104600F0ECF803E00123FB736C
:1027EC0000E000BF7B68012283F83D207B6800225B
:1027FC0083F83C20FB7B18461037BD4680BD80B467
:10280C0083B000AF786000BF0C37BD4680BC70470A
:10281C0080B483B000AF786000BF0C37BD4680BC7D
:10282C00704780B483B000AF786000BF0C37BD46F2
:10283C0080BC704780B483B000AF786000BF0C37A9
:10284C00BD4680BC7047000080B485B000AF786096
:10285C0039607B681B68FB607B68254A934207D014
:10286C007B68B3F1804F03D07B68224A934208D136
:10287C00FB6823F07003FB603B685B68FA681343EA
:10288C00FB607B681A4A934207D07B68B3F1804F98
:10289C0003D07B68174A934208D1FB6823F440733A
:1028AC00FB603B68DB68FA681343FB60FB6823F052
:1028BC0080023B685B691343FB607B68FA681A60B3
:1028CC003B689A687B68DA623B681A687B689A6234
:1028DC007B68074A934203D13B681A697B681A6389
:1028EC007B6801225A6100BF1437BD4680BC70471B
:1028FC00002C01400004004080B487B000AFF860A9
:10290C00B9607A60FB681B6A7B61FB681B6A23F009
:10291C000102FB681A62FB689B693B613B6923F00F
:10292C00F0033B617B681B013A6913433B617B6994
:10293C0023F00A037B617A69BB6813437B61FB68F4
:10294C003A699A61FB687A691A6200BF1C37BD4606
:10295C0080BC704780B487B000AFF860B9607A6013
:10296C00FB681B6A7B61FB681B6A23F01002FB6827
:10297C001A62FB689B693B613B6923F470433B61C2
:10298C007B681B033A6913433B617B6923F0A0030B
:10299C007B61BB681B017A6913437B61FB683A69F5
:1029AC009A61FB687A691A6200BF1C37BD4680BC0D
:1029BC00704780B485B000AF786039607B689B68E5
:1029CC00FB60FB6823F07003FB603A68FB68134301
:1029DC0043F00703FB607B68FA689A6000BF14370A
:1029EC00BD4680BC704780B487B000AFF860B9605A
:1029FC007A603B60FB689B687B617B6923F47F4357
:102A0C007B613B681A027B681A43BB6813437A6983
:102A1C0013437B61FB687A699A6000BF1C37BD4623
:102A2C0080BC704780B485B000AF786039607B683B
:102A3C0093F83C30012B01D1022341E07B68012249
:102A4C0083F83C207B68022283F83D207B681B685E
:102A5C005B68FB607B681B689B68BB60FB6823F052
:102A6C007003FB603B681B68FA681343FB607B6870
:102A7C001B68FA685A607B681B68144A934209D039
:102A8C007B681B68B3F1804F04D07B681B68104ACD
:102A9C0093420CD1BB6823F08003BB603B685B683E
:102AAC00BA681343BB607B681B68BA689A607B6822
:102ABC00012283F83D207B68002283F83C20002310
:102ACC0018461437BD4680BC704700BF002C01402F
:102ADC000004004080B483B000AF786000BF0C37B6
:102AEC00BD4680BC704780B483B000AF786000BF37
:102AFC000C37BD4680BC7047014B1868704700BF4F
:102B0C007800002070B500260C4D0D4C641BA410F1
:102B1C00A64209D100F0F6F800260A4D0A4C641BB7
:102B2C00A410A64205D170BD55F8043B9847013658
:102B3C00EEE755F8043B98470136F2E74C2D0008B8
:102B4C004C2D00084C2D0008502D0008024B01465E
:102B5C00186800F05FB800BF78000020024B0146F7
:102B6C00186800F00BB800BF780000200346024440
:102B7C00934200D1704703F8011BF9E738B50546BD
:102B8C00002943D051F8043C0C1F002BB8BFE418AB
:102B9C0000F0AAF81E4A1368104633B9636014603B
:102BAC002846BDE8384000F0A5B8A3420AD92168F0
:102BBC006218934201BF1A685B6852182260636006
:102BCC000460EDE71A465B680BB1A342FAD91168B1
:102BDC005018A0420BD12068014450188342116058
:102BEC00DED118685B68014411605360D8E702D9E4
:102BFC000C232B60D4E7206821188B4201BF196885
:102C0C005B680918216063605460C9E738BD00BF78
:102C1C000C010020F8B5CD1C25F0030508350C2D52
:102C2C0038BF0C25002D064601DBA94203D90C2325
:102C3C0033600020F8BD00F057F821490A681446AB
:102C4C009CB9204F3B6823B92146304600F03CF834
:102C5C0038602946304600F037F8431C23D10C234A
:102C6C003046336000F046F8E3E723685B1B17D46B
:102C7C000B2B03D923601C44256004E06368A2423B
:102C8C000CBF0B605360304600F034F804F10B00BD
:102C9C00231D20F00700C21ACCD01B1AA350C9E781
:102CAC0022466468CCE7C41C24F00304A042E3D0A1
:102CBC00211A304600F008F80130DDD1CFE700BF13
:102CCC000C0100201001002038B50023054D0446EE
:102CDC0008462B60FEF7D0FB431C02D12B6803B1D6
:102CEC00236038BDA4010020014800F009B800BFE2
:102CFC00AC010020014800F004B800BFAC0100207A
:102D0C0070477047F8B500BFF8BC08BC9E467047CA
:0C2D1C00F8B500BFF8BC08BC9E4670472C
:102D28000000000000000000010203040607080973
:102D380002030405060708090A0B0C0D0E0F1010F4
:042D48000102000084
:042D4C003101000849
:042D50000D01000869
:102D5400010000004F000000120000000600000007
:102D64004C00000024000000200000000F000000C0
:102D74000000000004000000010000000200000048
:102D84000300000004000000100000001000000018
:102D9400010000006400000008000000F4010000CD
:102DA400C80000002C010000F4010000C80000006D
:102DB4002C01000019000000320000000024F4007F
:102DC40010000000010000007C0000200000000052
:102DD40000000000000000000000000000000000EF
:102DE40000000000000000000000000000000000DF
:102DF40000000000000000000000000000000000CF
:102E040000000000000000000000000000000000BE
:102E140000000000000000000000000000000000AE
:0C2E2400000000000000000000000000A2
:04000005080014FDDE
:00000001FF
